:020000041000EA
:10000000002008205D0100101301001015010010F0
:100010001101001011010010110100101101001058
:100020001101001011010010110100101701001042
:100030001101001011010010190100101B01001026
:100040001D0100101D0100101D0100101D010010F8
:100050001D0100101D0100101D0100101D010010E8
:100060001D0100101D0100101D0100101D010010D8
:100070001D0100101D0100101D0100101D010010C8
:100080001D0100101D0100101D0100101D010010B8
:100090001D0100101D0100101D0100101D010010A8
:1000A0001D0100101D0100101D0100101D01001098
:1000B0001D0100101D0100101D0100101D01001088
:1000C0001D0100101D0100101D0100101D01001078
:1000D0001D0100101D0100101D0100101D01001068
:1000E0001D0100101D0100101D0100101D01001058
:1000F0001D0100101D0100101D0100101D01001048
:100100001D0100101D0100101D0100101D01001037
:1001100000BE00BE00BE00BE00BE00BEEFF3058004
:10012000103800BEF2EB8871347D0210547D02104D
:10013000A801001090A31AE7D3DEFFFF42012110AF
:10014000FF010000249F0200793512AB4FF0000040
:100150002049086006C881F3088810474FF05040D6
:10016000006810B14FF00000F2E70FA40ECC002998
:1001700002D000F015F8F9E71749184A002000E00E
:1001800001C19142FCD1002080F30A8814498847BC
:10019000144988471449884700BEFDE701C901C2D8
:1001A0009A42FBD3704700BF547D0210100100201B
:1001B000182400205CA00210000008200000082085
:1001C0005CA00210001008200010082000000000B1
:1001D0007047000008ED00E0182400204449072083
:1001E000613200100103001059320010F8B500BF51
:1001F0000348044B834202D0034B03B118477047B6
:10020000182400201824002000000000064B074995
:10021000C91A891048BF0131491003D0044B0BB1F2
:1002200001481847704700BF1824002018240020F8
:100230000000000010B5064C237843B9FFF7D8FF43
:10024000044B13B10448AFF300800123237010BDA9
:10025000A025002000000000C080001008B5044B5D
:100260001BB104490448AFF30080BDE80840CDE766
:1002700000000000A4250020C08000104FF0A04224
:1002800001231949F0B40E68D2F80C14B340194296
:1002900019D00020C2F80C3402461449144F0B68E0
:1002A000144C03F500630B60134D3B68B3F5FA5F24
:1002B00003F1010109D3A0B94FF40062B30103F1C6
:1002C000A0435C60DA61F0BC704734F81200013280
:1002D000B2F5006F25F813004FF0010002D00B4675
:1002E000E4E719463960E7E7C834072018490720D2
:1002F0006434072018390720E4F5062003F014B908
:100300002DE9F04F2DED048BADF5FA4D87B003F0DC
:10031000CBF87B4803F008F9192000F0F1FA012529
:10032000192345EC4430002242EC4030122029468B
:1003300000F0C8FA2946132000F0C4FA714C29468F
:10034000102000F0BFFA2946112000F0BBFA204629
:100350006D4900F00BF94FF0020E042163686B4AFF
:100360006B4F03EA0E03C7F800E011601360616889
:10037000C7F800E02368DFF8E0C183F00F0301EA6B
:100380000E0103F0CF03CCF800302846116001F0D5
:1003900061FA03464FF4006C5E4A5F4E02EA433254
:1003A000DFF8B8E19F01DFF8B881DFF8B89142F4D7
:1003B000481242F04502336007F1A04705FA03F303
:1003C000C7F800800A20C7F804E05449C7F808C0FD
:1003D0003A61C9F8043400F01BFB29460A2000F0FA
:1003E000D1FA33689FED4E8A9D404FF0A0439FEDB8
:1003F0004D9A4D48C3F8505405F090FC4B4A03AB5E
:1004000007CA83E807004A4C4A4B1968B1F5FA5FFE
:100410006BD31923012242EC4030474803F002F924
:10042000464B06AA33F9021F07EE901AF8EEE77A58
:1004300067EE887AA342E2EC017AF3D101F0EAF8A0
:1004400002AB032282468B4606A803A91F4606F08C
:1004500025FB01F0DFF8024600263948CDE90012FD
:1004600003F062F8019A0099B2EB0A0261EB0B0308
:10047000344803F0D7F8344803F056F83B68354663
:100480001868B14608EE900ADFF8DC8000E01868D2
:1004900007F0C2FD02460B464046294603F0C2F86B
:1004A0003B689A19D2ED007AF4EEE87AF1EE10FA90
:1004B000C8BFA94605F10105C8BFF0EE678A04363A
:1004C0000A2D3344E3D168EE897A17EE900A07F0DB
:1004D000A3FD02460B461D48494603F0A3F8192226
:1004E000002343EC4020134A1360642001F008F815
:1004F000174B184819680F4B1A6803F093F883E7F5
:10050000C080001000000840809698000420084039
:1005100004300840FDFF01FCC83407207D020010B4
:10052000000000380000C842FD020010CC8100101D
:100530006234072064340720E8800010E2F50620CA
:10054000F8800010188100104081001070810010A8
:10055000184907209C810010001008401839072016
:1005600008000840002000505C810010384B2DE945
:10057000F04798420CBF4FF480234FF40023074606
:100580000E46344D344C354A2B602360956833EA6F
:100590000505FBD1062000F08FF939464FF0020A1D
:1005A00051F8044F4FEAD6594FEA462C01F540580E
:1005B00004EA0A0E63464A465446C8F800A008E01A
:1005C00013EB0C0304F1020442EB0902B4F5807F43
:1005D00003D0984275EB020AF2D24FF48073C4EB59
:1005E000042201E0012B30D0B0FBF2FC66459946B5
:1005F000A2EB040203F1FF33F4D209FB04F91D025C
:100600003C6102243B4603263A6801F500515540FF
:1006100007F5805C05F47F45CCF80050C1F800E098
:100620007D68C8F8004053F8242B254082F007026B
:1006300002F0CF0203F50053CCF80020B0FBF9F034
:100640000D601E600C60BDE8F087A146D8E700BFD2
:10065000000008400020024000300240000002403C
:100660000FB400B583B0049C074802F05DFF3CB1B5
:1006700005A92046019102F0BFFD044802F054FF95
:10068000012002F0D1FD00BFD8810010E8810010E8
:1006900070B5EFF3108572B6134CD4E8CFCF0126B6
:1006A000BCF1000FF9D1C4E84C6FBCF1000FF4D1DC
:1006B000BFF35F8F4FF0010C4FEAD10E01F007033B
:1006C0000CFA03F310F80EC01CEA030608D14CEA3A
:1006D000030300F80E30C4E88F6F85F3108870BDF7
:1006E0001046FFF7BDFF00BF9FF10620F8B5EFF3FE
:1006F000108572B6234CD4E8CF7F0126002FFAD1A3
:10070000C4E8476F002FF6D1BFF35F8F9A4227D816
:100710000126D70810F807E002F0070C06FA0CFCD7
:100720001EEA0C0F00EBD2070DD125E04FEAD20EE6
:1007300010F80EE002F0070C06FA0CFC1EEA0C0F93
:1007400000EBD20718D001329342EFD24FF0FF30C6
:100750000023C4E88F3F85F31088984207DBF8BD7B
:100760000023C4E88F3F85F310884FF0FF30002945
:10077000F5D00698FFF774FF4EEA0C0C104687F888
:1007800000C0E5E79FF10620044A1078431CDBB265
:10079000172B88BF10231370704700BFA0190020CB
:1007A00010B5054C82B001461F231822009403485F
:1007B000FFF79CFF02B010BDEC81001070340720E1
:1007C0004FF0E022936843F000539360704700BFFE
:1007D0000021044B03F12002C3E88F1F0133934231
:1007E000FAD1704794F1062000EB400C4FEA8C0CD4
:1007F0000CF1804C0CF5803C70B5DCF80440A0F1A5
:10080000040EB4F5803F38BF4FF480345FFA8EFE9B
:1008100038BFCCF80440BEF1010F29D94FF400666F
:10082000244D0CF54054266055F82060BEB9DCF824
:1008300000400CF5805684EA421202F0E002BEF15C
:10084000010F326028D94FF4006145F820304FF491
:1008500080330CF500521160CCF8043070BD6C6927
:10086000B4FBF6F4013404EB4404033CFDD2DEE7B0
:100870000129D3D103250CF540542560DCF808404C
:10088000E407FBD5DCF800400CF5805684EA421200
:1008900002F0E002074D32600122DCF800404C40DB
:1008A00004F00304346002FA01F1DCF808200A4283
:1008B000FBD0C8E778340720014B53F8200070477D
:1008C0007834072010B44FF480740C4B53F8202078
:1008D00003EB8003C00082F0400200F1804003F58A
:1008E000805C02F0C00200F5203003F54053CCF8E4
:1008F000002041601C605DF8044B70470480034099
:1009000030B4002343EC440043EC400005254FF491
:1009100080740B4BC20053F8201003EB800081F071
:10092000400102F1804303F5203301F0C00200F5DD
:10093000805100F540500A605D60046030BC704733
:10094000048003404FF0E0234FF08032C3F80024CE
:10095000C3F80424C3F80824C3F80C24C3F81024F3
:10096000C3F81424C3F81824C3F81C24C3F82024A3
:10097000C3F82424C3F82824C3F82C24C3F8302453
:10098000704700BF012300F01F029340400941B1AE
:10099000800000F1604000F56140C0F880310360E4
:1009A0007047024A203042F82030704700E100E0F2
:1009B0000123064A410952F8212000F01F0003FAE2
:1009C00000F0104214BF18460020704700E100E01C
:1009D00001224309044900F01F0002FA00F04033ED
:1009E00041F82300704700BF00E100E0064B1030E3
:1009F0009B6853F8200028B1044BC01A2F288CBFE5
:100A000000200120704700BF00ED00E0A419002085
:100A1000F8B50D46EFF3108772B6124ED6E8CF2F19
:100A20000123002AFAD1C6E8423F002AF6D1BFF3DB
:100A30005F8F0D4B00F110049B680C4A53F8243073
:100A4000934203D0994201D000F016FF064B9B68F9
:100A500043F82450BFF35F8F0023C6E88F3F87F32E
:100A60001088F8BD9DF1062000ED00E01D0100108A
:100A70002DE9F04F80468B46174683B0EFF3108385
:100A800072B6DFF8D0A10093DAE8CF1F0123002966
:100A9000FAD1CAE8413F0029F6D1BFF35F8F664E15
:100AA00096F90050002DC0F2A080644C05EB450380
:100AB00004EB8300817908F11008317060499B00D4
:100AC0008968994651F828E00646AEEB04012F29C3
:100AD0004FEA450231D95B4B9E4540F0A2805A4B0C
:100AE00009F10209A144043BA3EB0903C3F34A0340
:100AF0006FEAC3434FF421416FEAD343154424F80E
:100B0000251004EB85056B804BF60153AB80FF236A
:100B100046F0010EEF71C5F808B0AB71484B9B6809
:100B200043F828E0BFF35F8F0023CAE88F3F009BA4
:100B300083F3108803B0BDE8F08F2EF0010191F827
:100B400007C0BC452BD84FF42146E6523E4B09F175
:100B500002062644043B09F104099B1BA1440E1F15
:100B6000C771A6EB0906394FC6F34A063E43868095
:100B7000C3F34A03364E3B4343804AF6AA250B464D
:100B80001B1B5B415D432D0DC0F808B0857140F023
:100B9000010E0E60C2E7C079B8422BD9614691F9C7
:100BA000063003EB430004EB8000002B8446F2DAAE
:100BB0004BF6015001930B1D043EF61AC6F34A068C
:100BC0006FEAC6466FEAD64602EB050CDFF8809066
:100BD000019B8D7104EB8C058E8044F82C90A880CD
:100BE000AB71EF71C5F808B098E700F045FE96F9D3
:100BF00000505AE788880193400501F1040315D499
:100C00004FEA605C6FF007000CF1020CA0EB0900EA
:100C100003EB4C0C001B6044C0F34A0040F46040FE
:100C2000CAE7019200F028FE019A58E700F5FF108C
:100C300000F5FF501F30E3E73F490720A4190020CB
:100C400000ED00E01D010010D419002000E0FFFFBE
:100C5000014880479DF10620F0B5EFF30585EDB220
:100C6000EFF3108C72B62649D1E8CF2F0123002A6A
:100C7000FAD1C1E8423F002AF6D1BFF35F8F214E7F
:100C800040F0010EB4684AF6AA2354F825701E4AB3
:100C90000446A41A644163431B0D77455BB21BD025
:100CA00092F906409C421CD092F912409C4223D0FB
:100CB00092F91E409C4221D092F92A409C4208BFE2
:100CC00003240FD0114A0024157813708571C1E8F0
:100CD0008F4F8CF31088F0BDB2680D4C42F8254060
:100CE000F0E7002404EB440402EB8402FF24947137
:100CF0004BF601549480E5E70124F3E70224F1E781
:100D00009DF1062000ED00E0A41900203F490720D6
:100D10001D01001010B5074C82B0014605230022CA
:100D200000940548FFF7E2FC0028A8BFC0F133009B
:100D300002B010BD0882001043490720014B19443E
:100D40000160704794F10620F8B5124D124EB5427D
:100D50001FD22C462368FF277BB1FFF715FD014604
:100D60002846FFF7EBFFA780BFF35F8F0834B4423C
:100D70000FD223682546002BEFD1FFF705FD014672
:100D80002846FFF7DBFF2771BFF35F8F0834B442BB
:100D9000EFD3F8BD102400201824002010B504461D
:100DA000FFF7F2FC01462046FFF7C8FFFF2323713F
:100DB000BFF35F8F10BD00BF10B504460120FFF7E1
:100DC000EFFC034B18442060BFF35F8F10BD00BFE2
:100DD00094F10620024B19440160BFF35F8F704706
:100DE00094F106200D4B1A68EFF3108172B6D2E829
:100DF000CFCF0120BCF1000FF9D1C2E84C0FBCF1FC
:100E0000000FF4D1BFF35F8F00221B68C3E88F2F60
:100E100081F3108840BF0020002170471C49072043
:100E20002DE9F04F2DED028B85B0EFF30583DBB29A
:100E3000103B9A0818BF01224FF0010103F0030094
:100E4000B14B00EB82020CBFB04FB14F53F82260A0
:100E500001FA00F207F541539FEDA98BB0460190CE
:100E600000925A6031E0B8F804301B0440F18E80E3
:100E700098F80630002B40F0DB80B8F90820002AF3
:100E8000C0F22181D8F8143002EB420203EBC20217
:100E9000D2E90245B5F1FF3F08BFB4F1FF3F09D0E9
:100EA000019B07EB8301BB6A0A69D21AE31A9342DA
:100EB00038BF0C61384600F0A5FB201A65EB010530
:100EC000012875F1000380F2FE80B8F90840009B0C
:100ED000002CFB63C7DBD8F814A004EB440B3846A6
:100EE0000AEBCB05D5E9029600F08CFB484561EB97
:100EF00006010029B7DB002EC0F2C3802B69854AAA
:100F0000934200F0F1806A88B8F9080092B242EA90
:100F100000406969984702460B4652EA030100F017
:100F2000B080002B80F2D580B9EB020266EB0303A0
:100F3000C5E902233AF93B50002D94DBD8F814C0E0
:100F400005EB45010CEBC1018868101AC86863EB1A
:100F50000000002887DBA8F8085007E08568551BCB
:100F6000C56863EB0505002D08DB0146B1F900609B
:100F700006EB4600002E0CEBC000EFDA2AF83B60CF
:100F80000C80B8F804301B043FF572AFD8F810306D
:100F9000EFF3108272B6D3E8CF0F01210028FAD107
:100FA000C3E8401F0028F6D1BFF35F8F4FF6FF70F4
:100FB000B8F804900023D8F810100FFA89F9A8F8AF
:100FC0000400C1E88F3F82F310889945FFF650AFC7
:100FD000BA46D8F8145008F1080B09EB490E05EB96
:100FE000CE03D3E90267B8F90830DC46002B05DAF6
:100FF0000FE035F934308446002B0ADB03EB430461
:1010000005EBC400D0E90212711A67EB0202002A54
:10101000EFDAACF8009035F93E9025F83E30B9F1A2
:10102000000FDADA98F806305746002B3FF425AF68
:10103000002388F80630B8F9083008F1080C5E1C67
:1010400041D01A46D8F8144003E08446591C3FF4B6
:1010500016AF03EB430104EBC10045881E462D0487
:1010600034F93130F1D5964280ED028BEED0ACF8F8
:101070000030B8F8082024F831203246A8F808607B
:10108000E4E73AF83B30A8F80830D8F81030EFF32E
:10109000108272B6D3E8CF0F01210028FAD1C3E83D
:1010A000401F0028F6D1BFF35F8FB8F80230D8F8A0
:1010B00010102AF83B300023A8F80240C1E88F3F07
:1010C00082F31088CFE640BF05B0BDEC028BBDE8CF
:1010D000F08F3846CDE9022300F094FA029A039B80
:1010E000821843EB010323E7696908460B69029103
:1010F00098470028C5D00299D1E900230DE700BF29
:10110000FFFFFFFFFFFFFFFFF038072000000B404D
:1011100000800B40210E00102DE9F84F364C256958
:101120002DB1BDE8F84F0A213448FFF707BEDFF8BC
:10113000E48003260321404600F052FAC4F80C80F4
:10114000FFF722FB4FF0504C2D4B26701844DCF873
:1011500000300F216370636961801D834FF00405C7
:10116000A3F878504FF00505A3F890504FF006050E
:10117000A3F8A8504FF007050E21206108274FF66D
:10118000FF724FF00A0EA3F8C0504FF001094FF064
:101190000C0C4FF0020B4FF0090A0D204FF00B051D
:1011A000A3F868111749A280A3F808E1A160A3F889
:1011B00048B0A3F8F0A0A3F82051A3F838C1A3F8D1
:1011C0005001A3F83090A3F86060A3F8D8701A809B
:1011D0000D4B3046C8F820700C49DC60FFF718FC56
:1011E00049463046FFF7CEFB094B0A211F600348F2
:1011F000BDE8F84FFFF7A2BDEC1900201C490720FD
:1012000094F10620FFFF1000F0380720210E001097
:1012100040200B4000000B4000487047EC190020B4
:101220002DE9F0419DF82050044617461E4635B979
:1012300000F0F0F9874266EB0101002957DB2169D4
:10124000EFF3108072B6D1E8CF2F0123002AFAD134
:10125000C1E8423F002AF6D1BFF35F8FB4F9022004
:10126000D4F814C002EB4201002A4FEAC10E0CEB85
:10127000C10102DB3CF80E3063804FF000082369A7
:10128000C3E88F8F80F31088424533DB4888069B84
:101290000130C0F30E00012838BF01200B61079B0D
:1012A00048804B61C1E9027640EA02402369EFF3CE
:1012B000108172B6D3E8CF6F0125002EFAD1C3E8B2
:1012C000465F002EF6D1BFF35F8FA3882CF80E3057
:1012D000A2802369C3E88F8F81F310880122E3681D
:1012E000217803F501538A405A60BDE8F081284611
:1012F000BDE8F0814FF0FF30F7E700BF0146F0B5E1
:101300000069EFF3108772B6D0E8CF5F0124002D9B
:10131000FAD1C0E8454F002DF6D1BFF35F8FB1F988
:1013200002E04C690EEB4E0C4FEACC06BEF1000F0A
:10133000A8BFA05B4FF00005A8BF488004EBCC0C11
:101340000869C0E88F5F87F31088AE4535DBBCF8CD
:101350000200CCE902230130C0F30E00012838BF9F
:101360000120059BACF80200CCF81030069B40EA47
:101370000E40CCF814300B69EFF3108272B6D3E84C
:10138000CFCF0127BCF1000FF9D1C3E84C7FBCF1EE
:10139000000FF4D1BFF35F8F8B88A353A1F804E053
:1013A0000B69C3E88F5F82F310880122CB6809784C
:1013B00003F501538A405A60F0BD4FF0FF30F0BD95
:1013C0004289B2EB214F38DD42690B1403EB430332
:1013D00010B502EBC3030469EFF3108C72B6D4E8C6
:1013E000CFEF0122BEF1000FF9D1C4E84E2FBEF1BC
:1013F000000FF4D1BFF35F8F5A8889B292B28A424C
:1014000007D000230269C2E88F3F8CF3108818468A
:1014100010BD42F400425A80012300220169837109
:10142000C1E88F2F8CF31088C268017802F5015251
:1014300003FA01F11846516010BD0020704700BF4B
:10144000407870472DE9F041861F41F1FF35B042E9
:1014500071EB050338BF002682B038BF354604461D
:101460000F4600F0D7F8301A65EB0101012871F141
:10147000000306DA2046394602B0BDE8F04100F02C
:10148000D3B800F0C7F8864265EB010100290ADBFA
:101490000021174B3246009316482B460191FFF767
:1014A0002DFF0028E6DB4FF0000C1348134A436A77
:1014B0009D4204D8816AB142DCD29D42DAD11368E0
:1014C000EFF3108172B6D3E8CF8F5FF0010EB8F161
:1014D000000FF8D1C3E848EFB8F1000FF3D1BFF324
:1014E0005F8F1368C3E88FCF81F3108820BFDEE7DA
:1014F000E50D0010EC19002000000B401C490720EE
:1015000010B5044600F086F84FF47A73E4FB03014B
:10151000BDE810400029BCBF4FF0FF306FF0004124
:10152000FFF790BFF0B507460E4683B0EFF3058492
:10153000E4B2002C3AD1274D2A78E96804328B6A4C
:1015400051F82220D21AC31A93420CD320BF224A48
:10155000506A86422ED8936A9F4224D9301A18BF07
:10156000012003B0F0BD00F055F8874266EB0101A1
:10157000002911DB194B2846CDE900343A463346A1
:10158000FFF7BCFE011E07DD134B5A6A96421BD9BA
:1015900020BF1048FFF714FF0F4B586A864209D846
:1015A0009B6A9F42DAD8012003B0F0BD0A4B586A0B
:1015B000884202D2002003B0F0BD9B6ABB42F2D247
:1015C000401A18BF0120F6E79B6A9F42E1D9964274
:1015D000DFD1DDE7EC19002000000B40E50D001025
:1015E00010B4054B054C064AA04214BF1846581CBF
:1015F0005DF8044BFFF74CB87434072000800B40B3
:1016000024820010416A0B46826A416A8B42FAD1F9
:1016100010467047034B596A0A46986A596A9142C4
:10162000FAD1704700000B40074A536A9942FCD830
:10163000994207D1044B02E05A6A914202D19A6A58
:101640008242F9D3704700BF00000B4070B4039C86
:101650000568240344EA03431B4C002DB4FBF1F45A
:10166000B2FBF4F21FDB194D194CA8420CBF4FF42A
:1016700000454FF48045174E256004F580542560E1
:10168000B46835EA0404FBD1212500F54054043444
:101690000160826025600268002AFCDA0822C360CB
:1016A000226070BC7047046804F03F048C42DAD1B9
:1016B0008468C4F30B049442D5D1C46804F4EE24C6
:1016C0009C42D0D1EDE700BF001BB7000080054071
:1016D000002002400000024030B44FF080441D4B17
:1016E0001C60E0B11C4CA3F54053DC611B4C40F086
:1016F000010044401C62596298624FF080454FF0EF
:10170000E061144B1648174C1D60846019604AB99B
:1017100030BC4FF00042A3F580531A607047124B63
:10172000D861EAE74FF47A7303FB02F2B2F1807FEB
:1017300009D20E4B1A604FF0804130BC0A480C4B66
:101740004260196070476FF07F4308491A460B608A
:10175000F1E700BF00B00D40D3C007B02D3FF84FF8
:1017600000A00140F3FFFF0100800D40E03807209A
:1017700000A00D40012300EB4000800000F18040FC
:1017800000F5841041600360704700BF10B500246D
:1017900082B00B46E48A002141E800F1CDE9000364
:1017A0004B0254BF1021042144F25220A047DDE92E
:1017B000002386460A214FF48170F44602B0BDE84A
:1017C000104060470023DB8A002242E800F2520208
:1017D00001D4102118470421184700BF08B50B4653
:1017E000011E02DB22B143F030031846FFF7CEFFA3
:1017F00043F02003F9E700BF034AD2F82838002B52
:10180000FBD0BFF35F8F704700000E400021044BF8
:10181000044ABFF35F8F43F8041B9342F9D170472A
:101820000C080E402C080E4010B42F204FF42A64F0
:10183000054A064B06491460D06019605368002BB6
:10184000FCDA5DF8044B70470080044000A00440BF
:1018500000B0FA0010B5054C82B001460F230022FB
:1018600000940348FEF742FF02B010BD488200100A
:101870003A490720704700BF08B50148FEF7F0FE5F
:101880006882001038B5054C054DAC4204D254F8BE
:10189000043B9847AC42FAD338BD00BF78800010B3
:1018A000B880001010B40748074C084B084A094993
:1018B00004601A608B6832EA0303FBD15DF8044BC5
:1018C000704700BF002002407F3BEFEF0030024036
:1018D000F6FFF30300000240044BDB6CB3F5004F4E
:1018E00003D14FF48022024BDA647047000011509C
:1018F000002011504FF0E022044BD2F8881D0B431A
:10190000C2F8883D10EE3004704700BF030330007A
:101910006FF06041044B054A19609368DB4333F074
:101920006043FAD1704700BF00300240000002401F
:1019300010B545F25320FFF745FFBDE810400346C0
:101940000420184710B545F25320FFF73BFFBDE8D0
:101950001040034601201847FEF73ABF10B5054B6B
:10196000054C4FF488721846A16806F0CFF8A060C5
:1019700010BD00BF0000002000ED00E00023F0B526
:101980002B4C83B0C4F88430FFF74EFF0122294B63
:10199000DA63636C012BFCD10321264A244B1163CB
:1019A0009D6B012DFCD1052302271E4600242946EC
:1019B000214A22480097FFF749FE29463346204A2C
:1019C00020480096FFF742FE3946224604201E4B6F
:1019D000FEF70AFF2946224630461C4BFEF704FF5D
:1019E0002246082021461A4BFEF7FEFE2246092019
:1019F0002146174BFEF7F8FE224606202146134BE0
:101A0000FEF7F2FE114B224607202146FEF7ECFEC0
:101A10000420FEF751FF0F4DA5FB0035AD0CE0B2E1
:101A200029460134FFF7A6FE062CF8D103B0F0BD1D
:101A30000000014000300140002F685900000540BF
:101A4000008C864700800540001BB70080D1F0085D
:101A5000006CDC0283DE1B4386B003B451FC080437
:101A6000CDE9020151FC0904CDE9040151EC0A045D
:101A7000CDE9060103BCF047BDE800504EEC00C4C0
:101A8000BDE800504EEC01C4BDE800504EEC02C46D
:101A900000BD000000B5FFF7DFFF02E010FE30F4EC
:101AA000F8D441EC100443EC112400EE010410EED4
:101AB000010480EE200451EC1004704700B5FFF7DC
:101AC000CBFF02E010FE30F4F8D441EC100443ECFC
:101AD000112400EE010410EE210480EE200451ECEC
:101AE0003004704700B5FFF7B7FF02E010FE30F496
:101AF000F8D410B541EC100443EC112451EC04046B
:101B000053EC0524A0FB024C5FF0000EE0FB03CE7B
:101B1000E1FB02CE4CEC20440024E1FB03E444EC66
:101B200030E480EE200451EC5004BDE810407047D2
:101B300000B5FFF791FF02E010FE30F4F8D441EC5D
:101B4000100443EC112451EC2104A0FB01126FEAB4
:101B5000820252FB100052FB12F252FB1000A0EB6B
:101B6000D07C53EC04245CFB13F153EC1524A1FB53
:101B7000022001FB030053EC4424A2EB000050FBC5
:101B80001CF24FEA111312EB017043EBE27140EAD1
:101B9000515020EA915020F0070053EC7524A0FB2F
:101BA000023C53EC752400FB03CC01FB02CC53EC4C
:101BB0000424ACEB824C40EA5C70A0F1010041ECE3
:101BC000400480EE200451EC7004704700B5FFF72C
:101BD00043FF02E010FE30F4F8D440EC700400EE55
:101BE000010410EE210480EE200451EC3004704713
:101BF00000B5FFF731FF02E010FE30F4F8D440ECFE
:101C0000600400EE010410EE210480EE200451EC8B
:101C10003004704700B5FFF71FFF02E010FE30F4FC
:101C2000F8D441EC800400EE010410EE010480EED3
:101C3000400410EE1304704700B5FFF70DFF02E0FB
:101C400010FE30F4F8D441EC800400EE010410EEF4
:101C5000010480EE400410EE3304704700B5FFF736
:101C6000FBFE02E010FE30F4F8D441EC100443EC2B
:101C7000112400EE010410EE3004C0F30070704730
:101C800000B5FFF7E9FE02E010FE30F4F8D443ECB3
:101C9000102441EC110400EE010410EE30F48CBF6E
:101CA00001200020704700BF00B5FFF7D5FE02E01D
:101CB00010FE30F4F8D443EC102441EC110400EE93
:101CC000010410EE30F42CBF01200020704700BF4B
:101CD00000B5FFF7C1FE02E010FE30F4F8D441EC8D
:101CE000100443EC112400EE010410EE30F42CBF7C
:101CF00001200020704700BF00B5FFF7ADFE02E0F5
:101D000010FE30F4F8D441EC100443EC112400EE42
:101D1000010410EE30F48CBF01200020704700BF9A
:101D200010B5044605F02CFC28B10346034A2344B1
:101D3000934200D810BD0248FEF792FC0000082034
:101D40007482001005F024BC704700BF2DE9F84FE5
:101D50009A460D9B17469A0706468B46DDF8288063
:101D600011D1DDE90B3293420DD213463C460B9A5A
:101D70009D1A3D4422465346594620200134B0471F
:101D8000AC42F7D100E03D460B9B73B108EB030476
:101D900004EB0509A9EB040214F8010D534659465A
:101DA000B0474445F6D10B9B1D440D9B9B070ED5B8
:101DB0000C9BEF1BBB420AD91C462A465346594688
:101DC00020200137B047BC4205F10105F5D828466F
:101DD000BDE8F88F2DE9F04F0F9EDDF824E016F0F6
:101DE000020F0A9C9DF82C900E9DDDE90C872CD1EA
:101DF000002D74D1BC4206F0010B80F0CB801F2C6B
:101E000088BF202400F2C68004F1FF3C4FF0300A66
:101E1000F44401E0202C04D00134A7420CF801AFB7
:101E2000F8D8BBF1000F10D0A5420ED9202C2DD030
:101E300004F1FF3C4FF0300AF44401E0202C25D09F
:101E40000134AC420CF801AFF8D116F0100F38D0C5
:101E500016F4806F26D10CBBB8F1100F7FD0B8F10B
:101E6000020F00F0928030248EF800400124B9F176
:101E7000000F2BD02D270EF804700134CDE90B563E
:101E8000CDE909E4BDE8F04FFFF760BF16F0100F91
:101E90004FF02004F2D016F4806F03D1A74249D04E
:101EA000A54247D0B8F1100F4ED0B8F1020F39D08B
:101EB000202CE3D04FF0300C0EEB040787F800C065
:101EC0000134202CDAD0B9F1000FD3D177071DD41B
:101ED0003707D3D520270EF804700134CEE716F06B
:101EE000010B0DD0B9F1000F22D116F00C0F1FD14C
:101EF000BC4299D21F2C87D9202DC7D82024A4E713
:101F0000BC42A2D21F2C7FF67FAFF7E72B270EF83B
:101F100004700134CDE90B56CDE909E4BDE8F04F7A
:101F2000FFF714BF202CA9D00EEB0407013440E0CA
:101F3000013DDDE7671E8FD0B8F1100F2FD0B8F14B
:101F4000020F35D03C46B5E7B7060FD4202C95D00C
:101F50000EEB040C013478278CF80070A8E7B40667
:101F60000ED478248EF800400124A3E7202C85D0DD
:101F70004FF0580C0EEB040787F800C0013497E7C8
:101F800058248EF80040012494E762248EF8004023
:101F900001248FE7BBF1000F08BF002555E716F0BD
:101FA000200FA4F10204E3D10EEB040C3C46D2E76F
:101FB00077444FF0620C87F800C079E700B97047AA
:101FC00001F074BA10B1D1E900311847704700BF71
:101FD0002DE9F04F2DED048B9BB02A9CDDE928897B
:101FE00009942B9C83461D460D940C920C46424648
:101FF0004B4640464946DDF8B0A0FFF733FE0028C7
:1020000040F0D680404649464FF0FF32744BFFF710
:1020100077FE002840F0CC80404649464FF0FF3222
:102020006FF48013FFF730FE002840F0C180404677
:10203000494600220023FFF727FE002840F0C18117
:10204000CDE90A89DDE90A231F461AF480631646A2
:102050001193099B08BF0623099356EA070340F032
:10206000C3801AF4006E00F0A4819FED5B7B002317
:102070008DED0E7B1093099B109A00269342D2BFE0
:102080000023A3EB020E0EF1FF3309934AF4806A9A
:1020900010960D9BB34294BF00279F1B1AF00203BA
:1020A000119302D0002E18BF0027109B3BB1DDE931
:1020B0000A01DDE90E23FFF73FFDCDE90A014046A5
:1020C000494600220023FFF7DFFD30B1DDE90A01B8
:1020D000024601F10043CDE90A239DED0A7B099BED
:1020E0008DED007B02932AF40063049321462B4676
:1020F00058460C9A039700F09BF98046002E51D069
:102100001AF0200F424614BF452065202B46214679
:10211000D847109A0DF1480C82EAE273A3EBE27300
:102120004FEAD27E002762461846DFF8B89008F1E1
:10213000010806F1FF3A01E0202F0FD00646A9FB67
:102140000031C90801EB8103A0EB43033033092EB2
:10215000084607F1010702F8013BEDD805230020EE
:1021600006930A234246CDE9033021462B465846C2
:10217000CDE9017ECDF814A0CDF800C0FFF72AFE0E
:10218000119B804673B10C9B0D9FC61AB74209D9AB
:1021900042462B46214620200136D847B74208F157
:1021A0000108F5D840461BB0BDEC048BBDE8F08FAC
:1021B0000D9B21462B9358462B46099C0C9ACDE942
:1021C0002889CDF8B0A02A941BB0BDEC048BBDE8E3
:1021D000F04F00F02DB900BF00000000000000002B
:1021E000FFFFEF7FCDCCCCCCC7F30A50A0F2FF307D
:1021F000FFF7F0FC8AA3D3E90023FFF777FC8AA35B
:10220000D3E90023FFF74AFCC7F3130341EC180B93
:1022100043F07F51304600227B4B41F44011FFF7E1
:1022200051FC6BA3D3E90023FFF760FC02460B4689
:1022300051EC180BFFF732FCFFF7F0FC1090FFF7A2
:10224000C9FC65A3D3E9002306460F46FFF74EFC01
:1022500000226E4BFFF722FCFFF7E0FC03463946F5
:1022600030460E935EA3D3E90023FFF73FFC0646FA
:102270000E980F46FFF7AEFC5BA3D3E90023FFF7F0
:1022800035FC02460B4630463946FFF71BFC02463A
:102290000B4606460F46FFF729FC324641EC180B69
:1022A0003B4630463946FFF7F9FB002241EC190B5B
:1022B000574B51EC180BFFF73FFC0022554BFFF733
:1022C000EDFB02460B4651EC180BFFF735FC0022E4
:1022D000514BFFF7E3FB02460B4651EC180BFFF79F
:1022E0002BFC32463B4606460F4600204FF080410D
:1022F000FFF7E8FB02460B4630463946FFF7CEFBB8
:1023000002460B4651EC190BFFF716FC0022434B1B
:10231000FFF7C4FB0E9B002203F2FF363305FFF7E5
:10232000E5FB06460F46DDE90A0132463B46CDE9AC
:102330000E67FFF7A9FC60BB31463A46109B63333A
:10234000C72B34BF042605261AF4006F3FF4A1AE54
:1023500051EA02033FF48FAEDDE90A0124A3D3E979
:102360000023FFF7B9FC48B1DDE90A0122A3D3E954
:102370000023FFF789FC00287FF47DAE099B002B2A
:102380003FF487AE119A002A3FF483AE013B0993D4
:102390007FE6109B0022013B109330461D4B3946CF
:1023A000FFF7CAFB0B4602460146CDE90E231A464B
:1023B000C4E79FED137B04268DED0E7BCDF840E046
:1023C00067E609F10043CDF828800B933AE600BF99
:1023D00061436F63A787D23F71A379094F930A4086
:1023E0001655B5BBB16B0240EF39FAFE422EE63FFF
:1023F0002D431CEBE2361A3F0000000080842E4182
:1024000000000000000000000000F83F0000E03F76
:1024100000002C4000002440000018400000F03F65
:10242000FB799F501344D33FB3C8608B288AC63FC3
:102430002DE9F04F2DED028B95B0DDE92245069593
:10244000249DDDE92067CDE90701CDE90923304668
:1024500032463B4639460595FFF704FC002840F01C
:10246000C481304639464FF0FF326FF48013FFF7D6
:102470000BFC002840F00D81304639464FF0FF320A
:10248000BF4BFFF73DFC002840F0DD80B8A3D3E947
:10249000002330463946FFF733FC002840F0C18066
:1024A000B5A3D3E9002330463946FFF7EDFB0028FA
:1024B00040F0B7803046394600220023FFF7E4FBA6
:1024C000002840F0DA802B460B9013F4806F08BF91
:1024D00006243021A2460CABA4F1200206E00AF14A
:1024E000FF3A524503F8011B00F03181BAF1090FA0
:1024F000A4EB0A05F3D839463046FFF78FFBA14B12
:10250000044603EBCA0393ED008BFFF763FB02461F
:102510000B4630463946FFF7D5FA53EC182BFFF738
:10252000E5FA89468046FFF78BFB8346FFF764FB9D
:1025300002460B4640464946FFF7C4FA0022924B3A
:1025400080468946FFF7DCFB002800F0F1800BF1A4
:10255000010B5846FFF750FB02460B4651EC180B97
:10256000FFF7A6FB10B14FF0000B0134BAF1000FDA
:1025700040F09A802046FFF72DFB02460B4630467E
:102580003946FFF79FFA00227F4B06460F46FFF7BA
:102590007BFB40B93046394600227B4BFFF7B0FB4E
:1025A000002800F016816A1E0CAB78491A44202DD1
:1025B0004FEAE47300F0938081FB0460C3EBA00357
:1025C00003EB8300A4EB400404F1300001351C460A
:1025D00002F8010F002BEAD1059B03F00303012B46
:1025E00000F08380202D0AD00B9B002B00F0B180DF
:1025F0002D2205F150036B4403F8202C0135059B77
:102600000CAC0393069B0094CDE90153DDE907016F
:10261000DDE90923FFF79AFB15B0BDEC028BBDE89D
:10262000F08F059BCDE92067DDE907012493069B28
:1026300022942393DDE9092315B0BDEC028BBDE89C
:10264000F04FFFF7C5BC05F004042395504D002C56
:10265000504C18BF2C46DDE9070120940CBF032421
:102660000424069B2293DDE90923219415B0BDECD7
:10267000028BBDE8F04FFFF769BB01213B463246B4
:102680000B9100200021FFF71DFA2B4606460F464E
:102690001BE7069C239522940424DDE90923DDE948
:1026A00007013D4D2095E0E7681E0CAB3B4F1844F9
:1026B0000FE0A7FB0B32D20802EB8203ABEB430324
:1026C0003033BBF1090F00F8013F69D9B246934698
:1026D0000D46202D0AF1FF3605F10101E9D1059BD8
:1026E000202503F00303012B89D1069B002B3FF427
:1026F00079AF0B9B1BB9059B13F00C0F02D0069B07
:10270000013B0693069BAB427FF66CAF202D0DD0AC
:1027100030226B1E0DEB02010B44069901358D42F0
:1027200003F8012F3FF45EAF202DF7D1202566E797
:10273000404649460022144BFFF7A6FA00287FF4D2
:1027400015AFBBF1000F4BD10BF1010B0EE72025AC
:10275000D1E6059B5A0741D41B077FF550AF2022D5
:1027600005F1300313446B4403F8202C013546E790
:102770000000000065CDCD410000000065CDCDC159
:10278000FFFFEF7F308300100000E03F6766666662
:10279000188300101483001024830010CDCCCCCCFF
:1027A00020299CD05EB30CAB5A1930200D46013560
:1027B000202D02F8010F92D0EB430B4413EB0A0FCC
:1027C000F5D12E2205F150036B4403F8202C01357E
:1027D000E9E6E1077FF5E7AE0134E4E62B2208E7FE
:1027E0001BF0010F3FF4C2AEAEE7069C2395229486
:1027F000044D0324DDE90923DDE9070152E70D4615
:10280000DFE700BF208300102DE9F04F9BB0249C30
:10281000844D0994844C0F1E18BF83462560187898
:10282000824D904608BFAB46002800F0C4821C468B
:102830004FF0000A0AE0524643463946D8470AF1AB
:10284000010A01342078002800F0C9802528F2D13F
:102850000021631C1C4613F8010BA0F12002102A72
:102860000AD8DFE802F03C09093909090909090910
:102870000936093309093000A0F13003092B40F271
:1028800090802A2800F0B98000252E2800F098803A
:1028900000230A93A0F16803122B27D8DFE813F076
:1028A0001F0126001A012600270126002600260007
:1028B00026002600260026002200260026002600EC
:1028C00026002600220041F00101C3E741F0020189
:1028D000C0E741F00401BDE741F01001BAE741F063
:1028E0000801B7E7607841F480710134A0F1250355
:1028F000532B00F28E80DFE813F01C018C008C005B
:102900008C008C008C008C008C008C008C008C0067
:102910008C008C008C008C008C008C008C008C0057
:102920008C008C008C008C008C008C008C008C0047
:102930008C008C008C008C008C00C5010201C5014C
:102940008C008C008C008C008C008C008C008C0027
:102950008C008C008C008C008C008C008C008C0017
:102960009B008C008C008C008C008C008C008C00F8
:102970008C008C009B008E019B00C5010201C501EB
:102980008C009B008C008C008C008C008C009B00C9
:102990006E018C008C0026018C009B008C008C004A
:1029A0009B00002505EB850500EB450514F8010F9C
:1029B000303DA0F13003092BF4D92E287FF468AF05
:1029C000607841F48061A0F13003092B04F1010229
:1029D00040F23F812A2800F04B81144658E75446C4
:1029E000D04501D808F1FF3A434652463946002007
:1029F000D84720461BB0BDE8F08F099B607853F89C
:102A0000045B0134002DBCBF41F002016D4209930B
:102A10003BE752464346394601340AF1010AD8479A
:102A200010E700BF09280010DC380720491D0010FE
:102A3000782800F07A81582800F0C0816F2800F0D3
:102A40000E82622800F06A8321F0100369284FF09B
:102A50000A090B9340F00682490500F16D810B9B3A
:102A600013F4007040F0088213F4807140F0E382A8
:102A70005E06099A00F1498213F0800F52F8043B78
:102A800000F097831BB2099283EAE372A2EBE37230
:102A900092B2D80F0D90002B40F065820B9820F079
:102AA000100340050B9340F15E8212AB0C9352462B
:102AB0000B9BCDE905530A9BCDE903930D9BCDE913
:102AC00001130C9B0093434639465846FFF782F9A1
:102AD00082467EE0607841F40071013406E7607858
:102AE000682800F0638141F080010134FEE66078DF
:102AF0006C2800F0568141F480710134F6E60A9B9F
:102B0000462808BF41F020010293099BCDE90351FB
:102B1000073323F00705B5EC027B5246434639469E
:102B200058468DED007B0995FFF782FC0134824603
:102B300088E60AF10100524643468246394625207E
:102B40000134D8477EE6099B53F8046B0D930A9B2A
:102B50003078002B00F0D880002800F032835A1E15
:102B60000132B146324401E0914503D019F8013FEA
:102B7000002BF9D1A9EB0603099311F480630B93A1
:102B800005D0DDE90932934228BF1346099311F0BD
:102B900002030C9300F04981002800F034810B9B64
:102BA000002B00F0B7800A9B52465344994608E038
:102BB00043463946D84716F8010F0AF1010A10B109
:102BC0005246D145F4D10C9B002B40F01C810D9B4B
:102BD0000993013436E6099850F8043B002B74D071
:102BE00041F0210512AA164600210C9202E020298C
:102BF00074D0134603F00F0C6246BCF1090F94BF6A
:102C0000303237320F2B06F8012B01F101014FEA68
:102C10001312ECD862E08B0740F1DA80DDF82490E3
:102C2000524659F8040B43463946C0B2D847012DE5
:102C30000AF1010688BFAA4440F291813246434618
:102C4000394620200136D8475645F7D1CDF8249093
:102C5000BFE7002303EB830300EB430312F8010FEC
:102C6000303BA0F13004092CF4D914460A9311E644
:102C7000099BA07853F8042B0234099322EAE273EB
:102C80000A9307E600F0DF03472B08BF00F0FD00C2
:102C90000A9B08BF41F40061452808BF41F02001AC
:102CA0000293099BCDE90351073323F00705B5ECE7
:102CB000027B52464346394658468DED007B0995C6
:102CC000FFF786F901348246BCE521F010054E0578
:102CD00045F0210586D5194612AB0C930A9B524646
:102CE00004930C9B019100930823059310230393F5
:102CF0000023099002933946434658460695FFF74C
:102D000069F8013482469DE56FF0010200287FF4E6
:102D100027AF31E7524643463946D84716F8010FE8
:102D20000AF1010A0028F5D14DE74FF0100921F012
:102D30000C0349050B9303D50B9B23F001030B9365
:102D400069283FF48CAE64283FF489AE0B9B13F4E2
:102D5000007040F0528113F4807140F0C6815E062D
:102D600040F1F080099B53F8042B0993D2B2002A5A
:102D700040F01E810B9820F0100340050B9340F1AA
:102D80001781114612AB0C930B9B0191CDE90553B2
:102D90000A9BCDE9039352460C9B009300230293B8
:102DA00091E6A07841F4407102349FE5A07841F0AB
:102DB000C00102349AE50446824611E621F00C0374
:102DC00043F020030B934B054FF01009B4D4BDE73B
:102DD000012D40F2F4810AF1FF331D44524643466F
:102DE000394620200AF1010AD847AA45F6D1099EA2
:102DF000434656F8040B2A463946C0B2D84705F177
:102E0000010A0996E5E6099B56469D427FF6DFAE2C
:102E100005EB0A00A0EB030A324643463946202060
:102E20000136D8475645F7D1D1E6099A954202F1C5
:102E3000010340F2C88105EB0A09A9EB02095246D9
:102E40004346394620200AF1010AD847CA45F6D13F
:102E500030786B1C099300287FF4A1AEB7E64FF0E1
:102E600008090B91642818BF0B997FF460AF0B9B86
:102E70005A053FF561AFF2E5099B073323F00703DD
:102E80001A4610465B6850F8082B002B1946164668
:102E9000099060DB0846D90F13430D913BD00B9B83
:102EA000002113F0200F14BF4123612312AA0A3B13
:102EB000CDE90EA51094CDF844B00D4614468246D7
:102EC0009B460C9203E0202D17D006468A463046DA
:102ED0004A465146002305F0ABF8D2B2092A02F166
:102EE000300388BF02EB0B03DBB24E4504F8013B15
:102EF0007AF1000305F10105E5D22A46DDF838A094
:102F0000109C0F9DDDF844B00FE052F8043BDBB29B
:102F100009921A46BDE50B9A22F0100352050B9355
:102F2000BDD500231A4612AB0C930B9B0192CDE941
:102F300005530A9B5246CDE903930D9B02930C9BCC
:102F40000093C0E513F0800F099B53F8042B0993FD
:102F500018BF92B20BE7564263EB43019AE7B246C1
:102F6000CDF8249035E60B9B13F0200F14BF4FF0E3
:102F7000410E4FF0610E12AB9C460C93AEF10A0E5F
:102F800003E020293FF493AD3246B2FBF9F609FB8A
:102F90001620C3B2092803F130008ABF7344C3B2BC
:102FA000DBB24A450CF8013B01F10101E9D27EE5B3
:102FB0000B9B13F0200F14BF4FF0410E4FF0610E2A
:102FC00012AB9C460C93AEF10A0E03E020293FF4AD
:102FD000DBAE3246B2FBF9F609FB1620C3B2092874
:102FE00003F130008ABF7344C3B2DBB24A450CF828
:102FF000013B01F10101E9D2C6E6099B073323F049
:1030000007035A6853F8086B1046099356EA0203FF
:1030100035D10B9A22F0100352050B932FD50023C4
:103020001A4612AB0C930B9B0192CDE905530A9BF8
:10303000CDE90393AFE6099B1A4652F8043B0D9283
:10304000D90F83EAE372A2EBE3720991002B68D1F6
:103050000B9921F010030B934B0562D512AB0C9327
:103060000B9B5246CDE905530A9BCDE90393099B7F
:10307000CDE901030C9B00930D9B099323E50B9B6A
:10308000002113F0200F14BF4123612312AA0A3B31
:10309000CDE90DA50F94CDF840B00D4614468246FB
:1030A0009B460C9203E0202D17D006468A463046F8
:1030B0004A465146002304F0BBFFD2B2092A02F16E
:1030C000300388BF02EB0B03DBB24E4504F8013B33
:1030D0007AF1000305F10105E5D22A46DDF834A0B6
:1030E0000F9C0E9DDDF840B09DE7099B53F8042B23
:1030F0000993002A39D10B9921F010030B934B054A
:1031000033D512AB0C930B9B5246CDE905530A9B6A
:103110000190CDE903930C9B00933FE64FF0020929
:103120009FE60B9B13F0200F14BF4FF0410E4FF0A2
:10313000610E12AB9C460C93AEF10A0E02E0202801
:103140008ED03246B2FBF9F609FB1621CBB2092923
:1031500003F130018ABF7344CBB2DBB24A450CF8AD
:10316000013B00F10100EAD27AE70B9B13F0200F3C
:1031700014BF4FF0410E4FF0610E12AB9C460C9302
:10318000AEF10A0E02E02028BDD03246B2FBF9F6BD
:1031900009FB1621CBB2092903F130018ABF734420
:1031A000CBB2DBB24A450CF8013B00F10100EAD298
:1031B000A9E7099283EAE372A2EBE37269E4554658
:1031C00015E60990D9E4099300287FF4E8ACFEE401
:1031D00070B594461E4605460C4684B04FF0FF324B
:1031E000634602A900960348CDE90254FFF70CFBA1
:1031F00004B070BDC51F001010B5094B84B01C6829
:103200004CB1034600914FF0FF3203A90548A04797
:10321000012004B010BD00F087F9204604B010BDB5
:10322000DC380720BD1F001000BEFDE7074A03463B
:10323000106838B1064903448B428CBF4FF0FF3011
:1032400013607047034908461160F3E7D83407203C
:10325000000008204449072008B5FFF7E5FF00BF3C
:1032600038B5064D064CFEF70DFBAC4204D254F8BF
:10327000043B9847AC42FAD338BD00BFC080001071
:10328000B88000100368084611461847437D2DE9B1
:10329000F04782460F469146002B44D0002A2ADD93
:1032A000002401252046DFF88C804E1E2CB3337895
:1032B00016F8012FA3F10D03B3FA83F30A2A4FEA9C
:1032C000531320D02B46994504F1010405F1010563
:1032D000ECDC814505DDA9EB0001DAF8003038446B
:1032E00098474F4417F8013CA3F10D03B3FA83F359
:1032F0005B098AF81430BDE8F08716F8012F9AF8B8
:1033000014300A2ADED1002BDCD1A04204DA211AC3
:10331000DAF800303844984740460221DAF80030A5
:1033200098472846CEE73846DAF800301146BDE81F
:10333000F0471847808300100B682DE9F041802B7F
:103340000D46064605D05A1C2B442A601E71BDE866
:10335000F0810F4B1C68A4B10E4F01F1040801E08D
:10336000246974B12368002BFAD03B680BB1A342E7
:10337000F6D1204641462A68FFF788FF2469002CD1
:10338000F0D1002301222B442A601E71BDE8F08198
:10339000CC340720D43407202DE9F04782B00D4605
:1033A000924699460746FEF735F92F4A821841F1B1
:1033B0000003002BBCBF4FF0FF326FF000432B48DF
:1033C00004F04EFE6B1C804603D1384604F07CFCB2
:1033D0000546274B274E1C68274BB9F1000F08BF45
:1033E0001E46B4B1BAF1000F1AD1DFF8909001E097
:1033F000246974B12368002BFAD0D9F800300BB1DE
:10340000A342F5D120462A463946B0472469002C0C
:10341000F0D1B8F1000F1FD1284602B0BDE8F08707
:103420004FF00A0ADFF8549002E02469002CF0D033
:103430002368002BF9D0D9F800300BB1A342F4D1A6
:1034400020462A463946B047204601220DF10701A1
:103450008DF807A0B047E8E7044804F0EDFD2846E2
:1034600002B0BDE8F08700BF40420F0010240020EA
:10347000CC3407208D32001085320010D434072060
:10348000084A136823B90AE003F110021B6933B13B
:103490009842F9D129B9036913600161704701B1FC
:1034A00010607047CC34072000F0CABAF0B583B082
:1034B00006468DF80700FEF7ADF8174A821841F16D
:1034C0000003002BBCBF6FF000434FF0FF321348E6
:1034D00004F0C6FD124B07461C689CB1114D01E07B
:1034E00024697CB12368002BFAD02B680BB1A3426E
:1034F000F6D1204601220DF10701FFF7C7FE24692E
:10350000002CEFD117B9304603B0F0BD034804F0EA
:1035100093FD304603B0F0BD40420F001024002060
:10352000CC340720D434072038B5044604F0CCFB53
:10353000012305461A4620462946FFF72DFF084B72
:103540001C682CB163682BB198472469002CF9D111
:10355000284638BD2469002CF4D1284638BD00BF68
:10356000CC3407202DE9F041A2B004460D46FEF709
:1035700051F8274A0026821841F10003002BBCBFF6
:103580004FF0FF326FF00043224804F069FD2B46F4
:1035900007462246204801A90196FFF719FE019B24
:1035A00006467BB91D4B1C682CB1636843B1984734
:1035B0002469002CF9D10FBB304622B0BDE8F08160
:1035C0002469F1E7DFF85480D8F80050EDB1144CCD
:1035D00001E02D6975B12B68002BFAD023680BB17F
:1035E0009D42F6D12846019A02A9FFF74FFE2D69A8
:1035F000002DF0D1D8F800400195D5E7054804F03A
:103600001BFD304622B0BDE8F0810195D3E700BF35
:1036100040420F001024002039330010CC34072022
:10362000D43407200FB400B583B004A951F8040BBB
:103630000191FFF797FF03B05DF804EB04B070470A
:10364000704700BF0022014B1A70704740490720A5
:103650004B79FF2B0BD1887948B9CB79012B07D156
:10366000082A05D9034B8A7809201A707047002070
:10367000704700BF4049072001207047012908D149
:1036800010B5124B0C461B789188994203D000204C
:1036900010BD012070475378012B08D0022BF6D1C2
:1036A000002164220846FEF717F8204610BD518815
:1036B000CB054BBF4A0A4A0A10464FF0FF3002F0D2
:1036C000010201F07F01FEF789F800BF40490720A1
:1036D00000487047A4830010012907D15378012BBB
:1036E00002D19388072B03D0002070470120704738
:1036F0001146A623014A01F037BA00BFC883001063
:103700000346012201481A70704700BF84830010ED
:1037100008B50B68B3F5966F00D008BD00224FF0D6
:10372000FF301146FEF75AF8024A034B1060196049
:10373000704700BF683407206C340720184B70B501
:103740001A68002A28D0EFF3108172B6D2E8CF4F62
:103750000120002CFAD1C2E8440F002CF6D1BFF3AF
:103760005F8F00220F4C186859602270C0E88F2FBD
:1037700081F31088002400250B4E3078FDF718F9EE
:1037800020B9002400252046294670BD3078FDF779
:103790001FF92046294670BD4FF47A740025EBE7E7
:1037A000E83807204249072041490720014B187893
:1037B000FDF70EB94149072038B5044600200D46F3
:1037C00001F00EFB90B3002001F020FB70B3FDF779
:1037D00021FF184A821841F10003002BBCBF4FF0B3
:1037E000FF326FF00043144804F03AFCF0B10020BF
:1037F00001F0F6FA58B900214FF0FF3000F0FCFC60
:103800006FF002040C4804F017FC204638BD00207D
:1038100001F0FCFA0028EED021462A46002001F0F3
:1038200001FB041E08BF6FF00204EBE76FF0020417
:10383000EBE700BF40420F002049072008B5FDF725
:10384000E9FE0F4A821841F10003002BBCBF4FF084
:10385000FF326FF000430B4804F002FC70B14FF0F0
:10386000FF30002100F0C8FC002001F025FB0028FB
:10387000F5D1BDE80840034804F0DEBB08BD00BF39
:1038800040420F00204907202DE9F84307460E4625
:10389000FDF7C0FE344A821841F10003002BBCBF83
:1038A0004FF0FF326FF00043304804F0D9FB08B905
:1038B000BDE8F883002001F093FA002849D0002EDB
:1038C00042DD0025DFF8A880DFF8A89013E022464B
:1038D000002001F035FB002104464FF0FF3000F0DE
:1038E0008BFC002001F0E8FAFDF794FEC8E9000126
:1038F0002544AE4228DD002001F046FB741B8442C3
:10390000A8BF04467919002CE1D121464FF0FF30C1
:1039100000F072FC204601F0CFFA204601F060FA78
:1039200090B1204601F030FB0028E2D1FDF772FE95
:10393000D8F80030D8F8042013EB090342F1000254
:10394000834272EB0103D4D20848BDE8F84304F087
:1039500073BB00200021064BC3E90001BDE8F8431A
:10396000024804F069BB00BF40420F002049072015
:103970009825002020A1070030B5002185B02A48F5
:1039800004F072FBF0B9294B1A68CAB1EFF3108149
:1039900072B6D2E8CF5F0124002DFAD1C2E8454FBC
:1039A000002DF6D1BFF35F8F214C1D68227859603E
:1039B000D3B201222270C5E88F0F81F31088CBB1FA
:1039C00005B030BD00214FF0FF3000F015FC0020A5
:1039D00001F01CFA0446144804F02EFB002CEFD032
:1039E000144B1B68002BEBD0134A106805B0BDE8E0
:1039F00030401847FDF710FC0446FDF70BFE10F5AC
:103A00007A7241F100030125002120460B4C002B66
:103A1000BCBF4FF0FF326FF00043CDE901150094B9
:103A2000FDF7FEFB05B030BD20490720E838072030
:103A300042490720683407206C3407203D370010C6
:103A40004FF0504330B585B01C68FDF7E5FBFDF73E
:103A5000F7FCA04202D0002005B030BD264B1B78F9
:103A600001F066FD25480368002B42D00120FDF7D8
:103A700051F90346224C2349C0B22370FCF7C8FF1A
:103A800020780121FCF77EFF0E20FCF7AFFF18BB6A
:103A90001D4B0125C3E90000FDF7BEFB0446FDF701
:103AA000B9FD10F57A7241F1000300212046174C50
:103AB000002BBCBF4FF0FF326FF00043CDE9011582
:103AC0000094FDF7ADFB0028C5DB01211048FFF78E
:103AD000D7FC012005B030BD0120FCF761FE014696
:103AE0000948FDF777F900220E200A49FCF7C0FFCC
:103AF000EBE7FDF753F9B9E7507D021020490720A5
:103B00004149072079390010E83807203D37001077
:103B1000041A0020AD3700100048704710850010CF
:103B200000487047BC84001038B51A4B04461A7818
:103B30002AB344B940F209424FF44173164D6A80EA
:103B400015482B8038BD052C21D8144B124D53F845
:103B5000241028460023013903E0132B20F8022FFC
:103B600012D011F8012F5FFA83FC0133002AF4D13F
:103B70000CF10103DBB25B0043F44073E0E7112179
:103B8000184600F025F8D4E74FF44A73D8E7002030
:103B900038BD00BF28490720A03407202485001025
:103BA00000B545F247308BB0FDF70CFE012203460D
:103BB000092101A89847DDE90332044912BA1BBA6A
:103BC000C1E900230BB05DF804FB00BF10390720EA
:103BD000013900F0B3805D4A13784FEA231C9F2B14
:103BE0008CBF0CF1370C0CF1300C012980F800C0AF
:103BF00000F0A78003F00F03092BCCBF373330331D
:103C00000229437000F09D8053784FEA231C9F2BBC
:103C10008CBF0CF1370C0CF1300C032980F802C07A
:103C200000F08F8003F00F03092BCCBF3733303304
:103C30000429C37000F0858093784FEA231C9F2BE2
:103C40008CBF0CF1370C0CF1300C052980F804C046
:103C500077D003F00F03092BCCBF3733303306295D
:103C600043716ED0D3784FEA231C9F2B8CBF0CF18D
:103C7000370C0CF1300C072980F806C061D003F036
:103C80000F03092BCCBF373330330829C37158D009
:103C900013794FEA231C9F2B8CBF0CF1370C0CF1CE
:103CA000300C092980F808C04BD003F00F03092B12
:103CB000CCBF373330330A29437242D053794FEAAD
:103CC000231C9F2B8CBF0CF1370C0CF1300C0B29F3
:103CD00080F80AC035D003F00F03092BCCBF37336F
:103CE00030330C29C3722CD093794FEA231C9F2BBD
:103CF0008CBF0CF1370C0CF1300C0D2980F80CC086
:103D00001FD003F00F03092BCCBF373330330E29FC
:103D1000437316D0D3791A119F2B8CBF37323032B0
:103D20000F2982730DD003F00F03092BD4BF30335A
:103D300037331029C37318BF103002D0002303702B
:103D40007047002308440370704700BF10390720F4
:103D5000F8B500F031F90C2340261A4D1A4CAB6728
:103D6000FF220E201949FCF783FE3246002120462F
:103D700003F042FF164B8021A36201270023154A5E
:103D80006184A260843A677026832687C2F88430F3
:103D9000C2F88030636084F8213084F83B3063627D
:103DA0000D4BE360E36204F01FF94FF000504FF455
:103DB00080320A490A4B2F64E864C5F89010DA642F
:103DC000F8BD00BF00001150DC340720A90300201B
:103DD00080001050840010500001105010D00100DD
:103DE0000020115001210E20FCF7CCBD002202481A
:103DF000114600F001B900BFFC340720044B1970D4
:103E000021B14FF40032034BC3F89020704700BF3C
:103E10003D490720002011500B785B0602D14B78FA
:103E2000052B00D070474B88014ADBB21360704706
:103E3000000011504FF0000C2DE9F0418878CF7848
:103E40008B8800F07F01344D4E0006EBD01205EB5D
:103E50004212C4099070C7F30100C3F30A03D0767D
:103E600084F0010082F803C0138307F00307507049
:103E700094BB0422294802EBC10205EB811E02EB30
:103E80000008CEF8088042F800C081B3244AC90077
:103E90000A44CEF8042023483F33016823F03F034F
:103EA000022F214A08BF5B000B44036081EA02082D
:103EB0005340321905EB4212B3F5805FD16027D829
:103EC000344405EB44156B6848EA876242F00042CF
:103ED00001201A60BDE8F08110480AB200EBC10869
:103EE00005EB811ECEF8288040F832C041B900238E
:103EF0000E4A05EB44140120E2606360BDE8F081E6
:103F0000C90001F1A04101F58011CEF82410C2E7EB
:103F1000FDF7B2FCD4E700BFDC340720800010506E
:103F200004001050E4380720000010500001105029
:103F300004F05AB88C4608B5114607481A460CF0EA
:103F40007F034FEADC1C0CEB430C00EB4C1000F041
:103F500053F8012008BD00BFDC34072011F07F00BA
:103F60000AD0C909074B01EB40004FF40062002161
:103F700003EB401004F070B8034BC909C1F1020211
:103F80009A66EFE7DC3407200020115011F07F0320
:103F900000D17047002210B4C809064C00EB430062
:103FA00004EB40136FF4006118465DF8044BDA70BF
:103FB00004F052B8DC3407204FF0805209480A4917
:103FC00008B50A4B02600A609968C94311F0805134
:103FD000FAD14FF48052064803F00EFE0922054B39
:103FE0005A6708BD00200240003002400000024035
:103FF0000000105000001150837E10B50446BBB97C
:104000004FF0000C01232046A2822161A4F816C0C3
:10401000A37604F009F820B14FF40032084BC3F83E
:104020009020204603F0D8FF28B10123237710BD4C
:1040300003F0D6FFE4E72046BDE8104003F0E0BF00
:10404000002011502DE9F04100241D4D80462346EB
:104050002A781C4F1C4E0DE0336813EB441325D017
:10406000DB68404698472A780134E4B2511CA142EB
:10407000234606DBA242A3EB0203EDD807EB431372
:10408000EEE7124C54220021204603F0B5FD4FF01C
:10409000FF33251D6360C5E90133EB6004F11400B3
:1040A0002022BDE8F041FF2103F0A6BD4FF0E02340
:1040B000D3F8F03DDB0700D500BEBDE8F08100BFBE
:1040C0003C49072098850010B0EE0620FCF1062040
:1040D000704700BF704700BF002070470020704746
:1040E000704700BF704700BF704700BF704700BFF8
:1040F000024B5878003818BF01207047FCF10620A9
:10410000024B1878C0F38000704700BFFCF1062016
:104110002DE9F8432D4F3B78FF2B02D00120BDE85D
:10412000F883002154220646294803F065FD002249
:10413000284D294B294C28461A70FCF72FFE284B96
:1041400004F114001D60FCF737FE204601F0ACFDC1
:10415000244A254B146023B12448FFF7D1FA244B9D
:1041600018600024214D23462A78DFF88890DFF874
:1041700080800EE0D8F8003013EB441311D05B6858
:104180007BB198472A780134E4B2511CA1422346FE
:1041900012DBA242EED89B1A09EB43135B68002B9B
:1041A000EFD14FF0E023D3F8F00D10F00100B6D0BE
:1041B00000BE0020BDE8F88330463E70FFF7C8FD22
:1041C0003046FFF70FFE0120BDE8F883381A0020C3
:1041D000FCF10620B4F106203E4907201C1A0020FD
:1041E00050F2062054F20620013700103C49072007
:1041F000B0EE0620988500102DE9F04FDFF8CC9244
:104200008BB099F80030FF2B00F0EF80AA4CDFF85C
:10421000C0A2DFF8C0B225686B69EFF3108272B6F6
:10422000D3E8CF0F01210028FAD1C3E8401F0028AE
:10423000F6D1BFF35F8FAA61284607A901F090FB72
:1042400000236A69C2E88F3FAB6983F310880028B6
:1042500000F0CB809DF81D30013B072B00F28E83D0
:10426000DFE803F0A5B0919A89360A04089B002B79
:10427000D1D009989847CEE79DF820108F4B01F0D8
:104280007F0503EB450303EBD11393F834206FF361
:10429000000283F8342093F834206FF3820283F80D
:1042A0003420002D00F0A480854A1B7D12789342B3
:1042B00080F09180DBF8002012EB431300F08E8039
:1042C0009D699DF82120099B9DF81C00A847A2E745
:1042D0007C4A1378002B00F081801378013BDBB21D
:1042E0001370137803F0FF00002B94D1734D9DF8E9
:1042F0001C802B7843F001032B7095F8343060F369
:10430000000385F8343095F8343060F3820385F883
:10431000343095F8353060F3000385F8353095F882
:10432000353060F3820385F8353000F08DFC9DF860
:10433000203003F06002602A0BD0402A64D003F0E2
:104340001F03012B00F0C880022B00F08980002B96
:1043500066D04FF0E023D3F8F03DDD0700D500BE76
:104360009DF81C000021FFF7F9FD80219DF81C003D
:10437000FFF7F4FD4FE7514B1B78D9077FF54BAFA3
:10438000FFF7B4FE47E74D4BDB78DA077FF543AF25
:104390000898FFF79FFE3EE7484B1A78D0077FF555
:1043A0003AAF1878C0F3C000FFF79EFE33E79DF8E0
:1043B0001C00FFF747FE00F03DFC404B9DF820201D
:1043C0009A7028E79DF81C00FFF73CFE00F032FCD5
:1043D000FFF788FE1FE7501C984211DA4FF0E023E8
:1043E000D3F8F03DDC0700D500BE0BB0BDE8F08F80
:1043F000099B9DF821209DF81C0000F039FC0AE77C
:104400009B1A0AEB43135BE72F4800F01DFC404664
:10441000012108AAFFF760F900287FF4FCAE9FE7AE
:10442000202A00F08D81002A93D19DF82130092B9C
:104430008FD801A252F823F0DF460010C3460010C7
:10444000534300100147001053430010A9460010C9
:1044500057460010534300104146001067450010B6
:104460009DF8241011F0700F7FF473AF144B01F01E
:104470007F06187805EB460303EBD1131F7DCB09AC
:1044800087424FEA460601935BD3431CBB42C0F20E
:1044900074813F1A0AEB4717002A00F0728178698D
:1044A00000F0D2FB404601217B6908AA984700280A
:1044B0007FF4B1AE54E700BF54F20620FCF10620B1
:1044C0003C4907203E490720D9360010381A002001
:1044D00098850010B0EE06209DF824300F2B3FF693
:1044E0003FAFB54A2B441B791578AB4234D36A1CD5
:1044F0009A42FFF635AF5B1B0AEB4315686900F083
:10450000A3FB012140466B6908AA984700287FF465
:1045100082AE9DF8203013F060057FF421AF9DF846
:1045200021300A3B012B3FF61BAF00F08DFB9DF8BD
:1045300021300A2B00F0F781404608A900F0FAFA72
:1045400069E6DBF8003003EB4717002A00F0198119
:10455000002F3FF405AFA2E7DBF8005015EB431541
:104560003FF4FEAECAE76B789DF822609E4200F0F1
:1045700054816B78002B40F0C4816E70002E00F0E7
:104580004A81701EC0B2FFF7CBFA002800F06581A7
:104590004378022B40F061812B78C27923F03001FF
:1045A000C2F340131B01C2F3801243EA42130B43D0
:1045B0002B70438800F10906C3180293CDF80C80D4
:1045C000029BB34240F2AA8172780B2A00F0B581B7
:1045D0000123042A40F0418118464FF00008029A56
:1045E0007549921B33460978064692B2CDF804808D
:1045F0001EE0DBF8007017EB481700F02E8119461B
:10460000049303983B6905929847DDE90432082832
:1046100008F1010102D9824280F004815FFA81F839
:104620006549CDF804800978481C804500F3158160
:1046300001988845A0EB0101DBD30AEB4117DEE7C7
:104640006B7840468DF81A300DF11A02012308A943
:1046500000F08AFADFE5BDF82200030A5A1EC0B254
:104660000E2A3FF67DAE01A151F822F08B480010D2
:104670001D470010C748001061430010614300103F
:10468000A94800101D47001061430010614300104D
:10469000614300106143001061430010614300104A
:1046A000614300107D48001008A800F0D3FA40468E
:1046B0009DF82210FFF79AFB2B7843F002032B7032
:1046C000A9E5BDF82230012B7FF44AAE2B78404695
:1046D0006FF3C30308A92B7000F02CFA9BE540464A
:1046E0002B789A0802F00202C3F340131343ADF88B
:1046F0001A300DF11A02022308A900F035FA8AE5F2
:10470000BDF82230012B7FF42BAE2B78404643F0CE
:10471000080308A92B7000F00DFA7CE5022B00F0CD
:104720001181FFF7DBFC024600283FF419AE40463A
:10473000538808A900F018FA00287FF46CAD0FE642
:104740009DF824300F2B3FF60BAE1B4A2B441B79F0
:104750001578AB4227D2DBF8005015EB43153FF438
:10476000FFAD686900F070FA404601216B6908AA44
:10477000984700287FF44FADF2E5002A7FF4F0ADB2
:1047800000279DF8212002F0FD03012B16D0002AFE
:104790007FF4DFAD019B35442B4493F83430404621
:1047A000C3F34003A3E76A1C9A42FFF6D9AD5B1B33
:1047B0000AEB4315D5E700BF3C490720BDF822307E
:1047C000ABB9012A00F0878099F80000FFF7C6FB1B
:1047D000019AAB19134493F8342042F0020283F893
:1047E000342093F8342042F0010283F83420002F63
:1047F0003FF411AD786900F027FA7B69012108AA1E
:1048000040469847002000F01FFA95F83530DE0743
:104810003FF501AD90E6FFF765FC404608A900F0C2
:1048200089F9F8E43246012A1E46134600F0A080BA
:10483000002A00F08E800022B77805E081F804801D
:10484000D1B28B4240F28580B91855FA81F191F8C6
:1048500004C00132BCF1FF0FF0D04FF0E023D3F8D9
:10486000F03DDB0700D500BE4FF0E023D3F8F03D6C
:10487000DF0700D500BE00236B7071E5FEF728FF4F
:10488000024600287FF453AF6AE5FFF745F9024678
:1048900000283FF45EAD4046122308A900F064F9F9
:1048A00000287FF4B8AC5BE5FFF716FC0246002851
:1048B0003FF456AD4046137808A900F055F900289A
:1048C0007FF4A9AC4CE5BDF82410FFF72DF90246A2
:1048D0000028EFD144E599F800000293FFF756FB5A
:1048E000019BAA191A4492F83410029B63F3410108
:1048F00082F8341092F8341063F3000182F8341017
:1049000075E700214046FFF779FA4046FFF710FBB4
:10491000AF784046FFF796FBAF702EE6DDF80C80CF
:10492000FFF7DEFB79E74046012308A90DF11A02E3
:104930008DF81A5000F018F96DE43278F3781644C7
:10494000727846E6FFF7ECF8024600287FF4EFAEF7
:10495000FFE402464346314606440D4800F070FE2F
:104960000C4B019A1B7801339342BFF629AE74E7D2
:104970003A6909498A4208BF02235CE74FF0E02305
:10498000D3F8F03DDB077FF546AC00BE43E400BF43
:1049900010F206203C490720855000102DE9F84F01
:1049A0000A9F002A40D00C461E4615464FF0000ACA
:1049B000DFF87C90DFF87C8018E0204698F8021041
:1049C00099F800B000F008FEE0B121465846FFF724
:1049D00031FAF0B1A2780AF1010AD30916BF0B9B94
:1049E0003A701A702278AA4514441DD06278052ABC
:1049F0000FD1E17801F00301B1420AD1A27812F09F
:104A0000700FDAD04FF0E023D3F8F03DDA0700D58D
:104A100000BE4FF0E023D3F8F03DDB0702D40020C6
:104A2000BDE8F88F00BEFAE70120BDE8F88F00BFAF
:104A3000381A0020FCF1062038B58B7813F0700F7F
:104A400008D04FF0E023D3F8F03DDB0700D500BEDF
:104A5000002038BD074A084B0C46084691781D785F
:104A600000F0BAFD0028ECD021462846BDE83840C9
:104A7000FFF7E0B9FCF10620381A00200B46064A81
:104A800006481168DA09343203F07F0302EB43036E
:104A9000184400F05BBD00BF50F20620FCF1062078
:104AA0000B46064A06481168DA09343203F07F03E0
:104AB00002EB4303184400F073BD00BF50F2062020
:104AC000FCF1062010B5194C01F07F0C04EB4C04EE
:104AD00004EBD11090F834C01CF0010F08D04FF057
:104AE000E023D3F8F03DDA0700D500BE002010BD6A
:104AF00090F834C000F130040D484CF0010C0078FF
:104B000084F804C0FFF716FA0028F0D14FF0E02235
:104B1000237960F300032371237960F38203237107
:104B2000D2F8F03DDB07E1D500BE10BDFCF1062058
:104B3000381A002030B50B4C8C46A646002305469B
:104B4000086849681A46AEE803009CF90010284638
:104B50009942C4E90233BDE83040ACBF8021194618
:104B6000FFF7B0BF80F106202DE9F0412F4F4FF045
:104B70000008BE468C46064608684968BA60AEE83A
:104B80000300A7F80E80BCF8065082B0AB4228BFE5
:104B90002B46BB819DB14BB314467AB397F90020E5
:104BA000402B28BF4023002A32DB4146204A3046B2
:104BB000FFF788FF80B1012002B0BDE8F0819CF9C9
:104BC00000202B46002AACBF802100212A46304617
:104BD000FFF778FF0028EED14FF0E023D3F8F03D47
:104BE000DB0711D500BE02B0BDE8F08197F90010D7
:104BF0001A460029ACBF19468021D8E74FF0E023C0
:104C0000D3F8F03DDA070DD4002002B0BDE8F08102
:104C10001A4621460648019302F078FF8021044A93
:104C2000019BC4E700BE2046C6E700BF80F1062016
:104C3000BCF106200022034BC3E90022C3E9022293
:104C40001A61704780F10620014B1861704700BF60
:104C500080F1062030B40246044C0025234600684B
:104C60005168C4E9025530BC03C3704780F1062087
:104C700070B5414CC90922780546B1EBD21F1E46DA
:104C800082B021D04BB14FF0E023D3F8F03DDA07EA
:104C900000D500BE002002B070BD2146FFF7BCF871
:104CA000236973B12246032128469847012002B0A8
:104CB00070BD01462846FFF751F980212846FFF7CD
:104CC0004DF9012002B070BD94F90020002A06DBE6
:104CD000A0680028DED01A46284902F017FFE089B4
:104CE000A168E288304480B231448242E081A16010
:104CF00016D03F2E14D9A28994F90040131A9BB202
:104D0000402B28BF4023002C27DB90424FF00001AE
:104D10002FD01A4A2846FFF7D5FE0028D1D114E03B
:104D200023692BB102212846134A98470028C0D096
:104D3000002394F9002028469A42ACBF80211946EE
:104D40001A46FFF7BFFE0028BBD14FF0E023D3F88F
:104D5000F03DDB079ED500BE9DE7904208D01A4685
:104D60000648019302F0D2FE8021044A019BD1E75C
:104D700080210022CEE700BF80F10620BCF1062092
:104D800070B50446FFF7B4F900B970BDFFF7B8F984
:104D900005460028F9D1E378002BF6D004F110067F
:104DA000304600F0CBFD3F28EFD92846E178FFF7E9
:104DB00065FE0028E9D0304600F0C0FD3F2808D944
:104DC0002846E17804F512724023BDE87040FFF7F1
:104DD00079BE2846E178BDE87040FFF761BE00BFAC
:104DE00010B50446FFF784F908B9002010BDFFF79D
:104DF00087F90028F9D14FF43273034803FB04000C
:104E0000007900F0010010BDB8EE06204FF43272B8
:104E100008B5034B02FB0030103000F075FD08BDF3
:104E2000B8EE06202DE9F8434FF6FE754FF6FF73F6
:104E30004FF43274AA4298BF134600FB04F41D4F8E
:104E400004F110053D4428469AB200F0D3FD064611
:104E5000FFF74EF910B93046BDE8F883FFF750F977
:104E600081460028F7D107EB040898F80330002B9F
:104E7000F1D0284600F062FD3F28ECD9484698F86A
:104E80000310FFF7FBFD0028E5D0284600F056FD93
:104E90003F2809D904F512724846402398F80310B8
:104EA0003A44FFF70FFED6E7484698F80310FFF79D
:104EB000F7FDD0E7B8EE06202DE9F0410446FFF7F4
:104EC00017F910B90020BDE8F081FFF719F906467F
:104ED0000028F7D14FF4327000FB04F4DFF85C8057
:104EE00004F124054544284600F00EFD0028E9D0D1
:104EF00008EB04073046B978FFF7C0FD0028E1D081
:104F000004F52274444428464022214600F072FDF4
:104F1000054670B1034622463046B978FFF7D2FD08
:104F200050B94FF0E023D3F8F03DDB07CAD500BEFF
:104F3000C9E7B978FFF7B4FD2846C4E7B8EE062004
:104F400038B54FF6FE754FF6FF734FF4327CAA4228
:104F500098BF13460B4C9AB20CFB00442434054610
:104F6000204600F0F3FD034620461C4600F0CCFC32
:104F70003F2801D8204638BD2846FFF79DFF204630
:104F800038BD00BFB8EE06204FF4327208B5034BAF
:104F900002FB0030243000F0D1FC08BDB8EE062042
:104FA000F0B500251A4C83B029464FF432722046E2
:104FB00002F022FEFF234FF4E1310822154863710D
:104FC0000570A160A27304F1380101234FF48072CF
:104FD000009504F1100000F065FC01234FF480728D
:104FE00004F59C71009304F50E7704F1240000F0A1
:104FF00059FC04F510763846FBF7D0FE3046FBF737
:10500000CDFEC4E90757C4E90C6503B0F0BD00BF8D
:10501000B8EE0620B4EE0620064B1A6A196B12B1E0
:105020000022C3E9072211B10022C3E90C220120AA
:10503000704700BFB8EE0620002210B50E4C0F4896
:10504000237802600271DA0707D59B070BD5BDE80C
:10505000104001210A4800F043BE103000F024FE49
:1050600023789B07F3D4064800F01EFEBDE81040ED
:105070000121034800F034BEB4EE0620B8EE06204D
:10508000DCEE0620F0B54B7983B0022B02D18B7990
:10509000022B03D00025284603B0F0BD264FBB7875
:1050A0003BB14FF0E023D3F8F03DDB07F2D500BE73
:1050B000F0E78B7806463B700C7809250C44617844
:1050C00024290BD1082A02D80FE0AA420DD3237855
:1050D0001C4461782B4424299DB2F6D005290AD0BE
:1050E000042902D163790A2B13D01348FFF748FE35
:1050F000284603B0F0BD21463046FFF79DFC00284E
:10510000CFD0A3787B7023781C442B4461789DB268
:10511000E6E70A4B277801930133009302233046D8
:105120001A46E119FFF73AFC0028BAD005F10E0340
:1051300017FA83F39DB2D8E7B8EE0620BAEE062040
:10514000137803F06003202B0ED170B5294C93889F
:1051500094F800C09C4509D15378203B032B05D817
:10516000DFE803F00C19220600207047002070BD14
:10517000012930D0032933D0012070BD01290CD082
:105180000329F9D11C4B002BF6D000201B49FEF758
:10519000BFFA012070BD0129EED111460723174A3D
:1051A000FFF7E2FC012070BD012914D00329E3D1EF
:1051B0005588134805F0010686F00101257100F0BD
:1051C0008FFD104B002BD7D031460020C5F3400295
:1051D000AFF30080D0E71146FFF7ACFC012070BDB3
:1051E000094B002BC8D000205188AFF3008001206C
:1051F00070BD00BFB8EE062011370010C0EE0620CB
:10520000DCEE062000000000000000002DE9F04761
:10521000374D0C46EA7807468A421E4656D19AB266
:1052200005F5127105F1100000F090FC314BD3B17F
:105230006B79FF2B17D0B6B105F2472808EB060AA9
:10524000A8F2372902E0D0450DD06B7918F8012F6C
:105250009A42F8D1484600F067FB0028F3D16979FB
:10526000AFF30080EFE7244B23B1244800F05CFB50
:1052700000283AD01E48FFF783FDAB78A34203D045
:1052800001242046BDE8F0871D4B13B10020AFF389
:1052900000800020FFF710FE0028F1D1194800F02F
:1052A00033FB0028ECD1002EEAD016F03F06E7D100
:1052B0003846A978FFF7E2FB04460028E0D03346E1
:1052C00032463846A978FFF7FDFBDAE7AB788B4228
:1052D000DAD04FF0E023D3F8F04D14F00104D0D031
:1052E00000BE00242046BDE8F087AFF30080C1E790
:1052F000B8EE06200000000000000000C8EE062006
:1053000000000000DCEE062070B5154C84B04FF4B0
:1053100033720021204602F06FFC402600234FF438
:105320008075221D029204F5E6721946009204F57A
:10533000D4701A460396019500F0AEF9002304F1EB
:10534000440204F1A801CDE901520091012219465D
:10535000039604F1840000F09FF904B070BD00BF13
:1053600018F3062010B5054C04F5D47000F0C0F910
:1053700004F1840000F0BCF9012010BD18F30620F0
:10538000002310B5054C04F5D870237000F08CFC98
:1053900004F18C00BDE8104000F086BC18F3062034
:1053A0002DE9F84F4B79FF2B51D13B4D0C7895F8F7
:1053B000A93195F885600C441E430F4604EB020B9F
:1053C00045D18B782B700B79002B3CD0804605F5AE
:1053D000D87905F18C0A6378052B09D0A34502D84A
:1053E00031E05C452FD223781C446378052BF8D13B
:1053F000A34528D921464046FFF71EFB002842D08E
:10540000A378DB0926D1484600F04EFCA37895F836
:10541000A82185F8A931A3884046C3F30A03A3F560
:105420000073B3FA83F35B0963F341021B4985F808
:10543000A82100F0CDF930B33A7901362178F3B2E2
:105440009A420C44C7D8E01B80B2BDE8F88F002018
:10545000BDE8F88F504600F027FCA37895F884202B
:1054600085F88530A3880E49C3F30A03A3F50073BA
:10547000B3FA83F35B0963F34102002085F88420CB
:1054800000F06CF9D8E74FF0E023D3F8F03DDB07EC
:10549000DDD500BEDCE700BF18F30620C0F406200F
:1054A0009CF3062070B51C4C064694F8A9C11D4615
:1054B0008C4512D094F885308B420CD1174B1BB120
:1054C0000020A9B2AFF300803046154900F046F93C
:1054D000D8B1012070BD002070BDB4F8B43163B9FB
:1054E000104B23B100201049AAB2AFF30080304620
:1054F0000E4900F06DF9012070BDD4F8AC11AAB2CC
:1055000004F5D87000F022FBEAE72A463046044949
:1055100000F0F0F8012070BD18F306200000000034
:105520009CF30620000000001CF30620C0F40620B7
:1055300008B50020FEF7ECFD00B108BD4FF0E023F8
:10554000D3F8F03DDB07F8D500BE08BDF8B5037809
:1055500013F001041AD1037805465A07C3F38007F4
:1055600001D52046F8BD0E464FF0FF31304602F01F
:1055700043FD2B7813F001040BD12B785B0709D482
:105580002B78012443F004032B7003E00024204611
:10559000F8BD3C46304602F04FFD2046F8BD00BF46
:1055A00070B50D4604464FF0FF31284602F024FD49
:1055B0002378C3F380065B0708D5237813F0010234
:1055C00011BF0026237862F382032370284602F07D
:1055D00033FD304670BD00BFC378828803F00300FE
:1055E0000228C2F30A0205D003281BD0012807D0E5
:1055F0000020704702291ED0402A09D80120704798
:10560000022940F2FF3308BF4FF480639342F6D281
:105610004FF0E023D3F8F00D10F00100EFD000BE02
:105620000020704702290CBF4FF48063402393424F
:10563000EED30120E3E7B2F5007FDFD0E8E700BF5B
:105640000A44914226D291F801C0BCF1050F05D061
:1056500091F800C061448A42F5D8704700B591F8CE
:1056600002C00CF07F0E00EB4E0E4FEADC1C0EF871
:105670000C3091F800C061448A4209D991F801C008
:10568000BCF1050FEBD091F800C061448A42F5D817
:105690005DF804FB704700BF2DE9F0418E4682B0F3
:1056A000009390F800C0089EBDF824706EF3000CC3
:1056B00004461546012331463A4600F808CBBDF8AA
:1056C0002C8000F0EFF806B13FB901200A9BA4F846
:1056D0000280636002B0BDE8F08104F11C06304630
:1056E000FBF75CFB0DB135460026C4E90556ECE737
:1056F00001207047F8B50746084640F2FF131546EB
:1057000010F8082B0C4612F0020F14BF1E463F265D
:1057100000F0FAF828B925B1354202D12378DA072A
:1057200001D50020F8BD38466178FFF7A7F90028B9
:10573000F7D0237813F0010307D04FF0E023D3F81C
:10574000F03DDB07EDD500BEEBE71A463846617841
:10575000FFF7B8F90028F0D0F8BD00BF70B501F12F
:105760000805064628460C4600F0CEF810B123780E
:10577000D90701D5002070BD30466178FFF77EF96A
:105780000028F7D028466288616800F033F9237852
:10579000054648B1DA0710D54FF0E023D3F8F03DC5
:1057A000DB07E7D500BEE5E713F00105E2D130469F
:1057B0006178FFF775F9284670BD03466268304688
:1057C0006178FFF77FF90028E6D02846F4E700BFAC
:1057D0008B892DE9F0410C4605462BB90B78DE0785
:1057E0003DD50020BDE8F0810E4616F8083B2C4A56
:1057F00003F00203002B304615BF90466FF03F08C0
:105800004FF40077402700F099F88742E9D82378D1
:10581000D907E6D428466178FFF730F90028E0D0B0
:10582000304600F08BF8874223782BD8DA070ED465
:10583000668808EA000290B2864228BF0646617870
:105840005EB3626833462846FFF73CF908BB4FF069
:10585000E023D3F8F03DDB07C3D500BEC1E74978AC
:10586000FFF70CF90028BCD02378D807EFD4638861
:10587000617883B162682846FFF724F90028E6D0F2
:105880006088AFE713F00106ABD128466178FFF7D7
:1058900007F93046A6E71A46EDE73246D2E700BFE1
:1058A00000FEFFFF2DE9F041B2F5004F9DF8188092
:1058B00027D80446C06817460E461D4618B14FF05B
:1058C000FF3102F099FB206918B14FF0FF3102F06F
:1058D00093FB0022C5F30E03E06843EAC8336281FC
:1058E0002660A780E380228108B102F0A5FB206931
:1058F00020B102F0A1FB0120BDE8F0810120BDE84C
:10590000F0810020BDE8F081038942899BB292B208
:105910008088934236BFC2EB40029B1A9B189BB211
:10592000984228BF184670470289438990B29BB2BB
:10593000C01AB0FA80F04009704700BF038942895D
:105940009BB2808892B2934236BFC2EB40029B1A50
:105950009B189BB2984286BFC01A80B20020704745
:1059600038B5044600690D4618B14FF0FF3102F01A
:1059700043FB2189638989B29BB2A288994236BFD1
:10598000C3EB4200C81A401880B250B3824209D219
:1059900091422CBF891A89188BB29A42638103D82D
:1059A0009B1A9BB29A42FBD9E2882168C2F30E028D
:1059B00002FB0311284602F0A9F86189012589B28A
:1059C0004B1C9BB29942A2880ED9002302FA05F122
:1059D0005B1A9BB22069638108B102F02DFB284657
:1059E00038BD054663899BB2B3EB420F4FEA4201D3
:1059F000F0DBEDE72DE9F047064600698846914661
:105A000018B14FF0FF3102F0F7FA338974899BB275
:105A1000A4B2B588A34236BFC4EB45071F1BFF18CD
:105A2000BFB2002F48D0BD423ED34F4528BF4F469E
:105A3000A542BFB203D8641BA4B2A542FBD9F28829
:105A40002B1B31689BB2C2F30E0C9F42E2460CFB4B
:105A5000041123D913FB0CF31FFA83F94A4640467D
:105A600002F054F87A1B224412FB0AF2316808EB68
:105A7000090092B202F04AF87289B58892B2D3193D
:105A80009BB29A421AD96A009B1A9BB23069738101
:105A900008B102F0D1FA3846BDE8F08740460CFB69
:105AA00007F202F033F8E7E7AB422CBF5B1B5B1950
:105AB0009CB22F467481B8E773899BB2B3EB450F54
:105AC0004FEA4502E2DBDFE7F8B50446C0680E4660
:105AD00018B14FF0FF3102F08FFA258923896189CF
